:1000000057C0000072C0000070C000006EC0000049
:100010006CC000006AC0000068C0000066C000003C
:1000200064C0000062C0000060C000005EC000004C
:100030005CC00000FFC1000058C0000056C00000B6
:1000400054C0000052C0000050C000004EC000006C
:100050004CC000004AC0000048C0000046C000007C
:1000600044C0000042C0000040C000003EC000008C
:100070003CC000003AC0000038C0000036C000009C
:1000800034C0000032C0000030C00000F703140488
:1000900032044204ED040505D004B3047604490596
:1000A0004C0555057C059A05EE05EE05EE05EE05B9
:1000B00011241FBECFEFD0E4DEBFCDBF11E0A0E022
:1000C000B1E0EEE8FFE000E00BBF02C007900D9248
:1000D000A23CB107D9F721E0A2ECB1E001C01D922A
:1000E000A13EB207E1F785D550C78ACFCF93DF9302
:1000F0001F92CDB7DEB7898389818093D601000036
:100100000F90DF91CF910895CF93DF9300D01F928E
:10011000CDB7DEB79B838A838A819B81FC01808176
:1001200089838981882F90E09695982F88279795C5
:100130008795982F898189278983898182958695DA
:1001400087709981892789838981882F90E0880F1A
:10015000991F880F991F880F991F982F89818927C8
:1001600089838A819B812981FC01208389810F9069
:100170000F900F90DF91CF910895CF93DF93CDB77C
:10018000DEB786ED91E0C0DFDF91CF910895CF9388
:10019000DF931F92CDB7DEB7F0DF89838981882F87
:1001A00090E09C012370332781E090E002C0880F2B
:1001B000991F2A95E2F70F90DF91CF910895CF9381
:1001C000DF93CDB7DEB781E01AD00000DF91CF9189
:1001D0000895CF93DF93CDB7DEB784E690E0ACD03F
:1001E00088E30DD086E00BD08FE009D081E007D006
:1001F0008AE090E0A1D00000DF91CF910895CF93E5
:10020000DF931F92CDB7DEB789838BE290E02BE2BC
:1002100030E0F90120812F7BFC01208388E290E00F
:100220002981FC0120838BE290E02BE230E0F90190
:1002300020812068FC01208300008BE290E02BE20B
:1002400030E0F90120812F77FC01208382E090E0EB
:1002500073D000000F90DF91CF910895CF93DF937B
:100260001F92CDB7DEB789838BE290E02BE230E0BE
:10027000F90120812064FC01208388E290E029813B
:10028000FC0120838BE290E02BE230E0F901208139
:100290002068FC01208300008BE290E02BE230E03C
:1002A000F90120812F77FC01208381E090E044D088
:1002B00000000F90DF91CF910895CF93DF9300D08E
:1002C00000D0CDB7DEB78A837C836B8378DF8A81E9
:1002D00089830FC0898191E0980F998318D08B8111
:1002E0009C819C012F5F3F4F3C832B83FC018081CD
:1002F000B5DF8B819C81FC018081882359F7000048
:100300000F900F900F900F90DF91CF910895CF93A2
:10031000DF931F92CDB7DEB789838981813120F4C5
:10032000898181586CDF03C08981815568DF0000B5
:100330000F90DF91CF910895CF93DF9300D000D03D
:1003400000D0CDB7DEB79E838D831A82198213C089
:100350001C821B8206C000008B819C8101969C83BD
:100360008B838B819C8187309340ACF389819A8108
:1003700001969A83898329813A818D819E812817EC
:10038000390734F3000026960FB6F894DEBF0FBE8F
:10039000CDBFDF91CF910895CF93DF93CDB7DEB777
:1003A00081E890E02BE0FC01208388E890E02DE7D5
:1003B00030E0FC01318320838FE690E022E0FC01F5
:1003C000208384E890E0FC0111821082809100017A
:1003D00090910101A0910201B09103018093C301AA
:1003E0009093C401A093C501B093C6018FE590E03E
:1003F0002FE530E0F90120812068FC012083000016
:10040000DF91CF910895CF93DF93CDB7DEB781E829
:1004100090E0FC0110820000DF91CF910895CF930E
:10042000DF93CDB7DEB781E08093C2010000DF919A
:10043000CF9108951F920F9200905F000F921124A8
:1004400000905B000F922F933F934F935F936F93B6
:100450007F938F939F93AF93BF93EF93FF93CF932C
:10046000DF93CDB7DEB78091C3019091C401A09115
:10047000C501B091C6010197A109B1098093C301DB
:100480009093C401A093C501B093C6018091C301AC
:100490009091C401A091C501B091C601892B8A2B0E
:1004A0008B2B89F4BCDF8091000190910101A09118
:1004B0000201B09103018093C3019093C401A09302
:1004C000C501B093C6010000DF91CF91FF91EF917C
:1004D000BF91AF919F918F917F916F915F914F915C
:1004E0003F912F910F9000925B000F9000925F0060
:1004F0000F901F901895CF93DF9300D000D0CDB709
:10050000DEB769837A838B839C8389819A81AB81EF
:10051000BC818093000190930101A0930201B093EC
:1005200003018091000190910101A0910201B0911D
:1005300003018093C3019093C401A093C501B093BC
:10054000C60100000F900F900F900F90DF91CF9198
:1005500008950F931F93CF93DF9300D000D0CDB7B2
:10056000DEB769837A838B839C838091D0019091DD
:10057000D101A091D201B091D3019C01AD0169815B
:100580007A818B819C817FD3882309F471C020E01C
:1005900030E0A90169817A818B819C8174D38823A1
:1005A00051F481E990E021E930E0F90120812870DF
:1005B000FC01208309C081E990E021E930E0F901E4
:1005C00020812360FC01208328E539E344E75FE3D1
:1005D00069817A818B819C8156D3882344F488E990
:1005E00090E02FEF3FEFFC013183208330C020E00B
:1005F00034E244EF56E469817A818B819C8155D441
:10060000181634F488E990E0FC01118210821FC0B2
:1006100008E910E020E030E040E053E469817A81AD
:100620008B819C8146D4DC01CB019C01AD0160E053
:1006300074E284EF9AE42BD3DC01CB01BC01CD0141
:100640008ED3DC01CB010197F8019183808384E98B
:1006500090E0FC011182108289819A81AB81BC817A
:100660008093D0019093D101A093D201B093D30194
:1006700000000F900F900F900F90DF91CF911F917E
:100680000F910895CF93DF93CDB7DEB780E990E067
:1006900020E4FC01208381E990E02BE0FC01208331
:1006A00060E070E0CB0155DF0000DF91CF9108954D
:1006B000CF93DF93CDB7DEB780E990E0FC011082E5
:1006C00081E990E0FC0110820000DF91CF91089554
:1006D000CF93DF931F92CDB7DEB7898389818130B5
:1006E00031F464EA70ED82E893E433DF1FC089815E
:1006F000823031F46BE774ED82E993E42ADF16C0AF
:100700008981843031F464EA70ED84EA93E421DF76
:100710000DC08981883031F461E77DE98EEA93E488
:1007200018DF04C060E070E0CB0113DF00000F9021
:10073000DF91CF910895CF93DF931F92CDB7DEB7AE
:1007400083E290E0FC01808180958F7089838981AC
:10075000882F90E08170992721E0892B09F420E00F
:10076000822F8093C7018981882F90E0827099271A
:1007700021E0892B09F420E0822F8093C801898130
:10078000882F90E08470992721E0892B09F420E0DC
:10079000822F8093C9018981882F90E088709927E2
:1007A00021E0892B09F420E0822F8093CA01000008
:1007B0000F90DF91CF9108950F931F93CF93DF9305
:1007C000CDB7DEB78091D4019091D501CC01A0E0E6
:1007D000B0E040E050E028E030E0841B950B2817A3
:1007E000390708F437C18A5B9F4FFC01C5C380916C
:1007F000C701882369F48091C801882349F4809156
:10080000C901882329F48091CA01882309F427C1EA
:1008100081E090E09093D5018093D401D0DC64E036
:1008200071E081E04ADD1BC18091C701882361F43A
:100830008091C801882341F48091C901882321F463
:100840008091CA01882339F081E090E09093D5012E
:100850008093D40109C182E090E09093D501809308
:10086000D40102C183E090E09093D5018093D4013C
:10087000A6DC64E271E081E020DD8091CC01815D45
:10088000EDDCF2C09091CD018091CC019817B0F0D1
:1008900084E090E09093D5018093D4011092CD0133
:1008A00082E290E0FC0110828ADC6FE371E081E07B
:1008B00004DD8091CC01815DD1DCD6C08091CF0177
:1008C000833070F083E090E09093D5018093D40161
:1008D0008091CD018F5F8093CD011092CF01C4C074
:1008E0008091CF018F5F8093CF01BEC082E290E004
:1008F000FC0110828091C701882361F48091C801B6
:10090000882341F48091C901882321F48091CA0190
:10091000882381F088E090E09093D5018093D40102
:100920004EDC6EE571E081E0C8DC8091CC01805D39
:1009300095DC9AC08091CE01893048F41092CE01A6
:1009400082E090E09093D5018093D4018DC087E040
:1009500090E09093D5018093D40131DC60E771E0A1
:1009600081E0ABDC81C08091C701882369F480916C
:10097000C801882349F48091C901882329F4809112
:10098000CA01882309F46DC01092D5011092D401D8
:1009900016DC61E971E081E090DC80E099DE61C005
:1009A0008091C701882369F48091C801882349F4A4
:1009B0008091C901882329F48091CA01882309F410
:1009C00052C01092D5011092D401F9DB61E971E0B7
:1009D00081E073DC80E07CDE46C080E079DE9091CF
:1009E000CE018091CC01981738F088E090E0909388
:1009F000D5018093D40138C084E090E09093D50174
:100A00008093D40180E064DE2FC08091C7018823E9
:100A100061F48091C801882341F48091C901882341
:100A200021F48091CA01882339F085E090E0909309
:100A3000D5018093D40118C08091CE018F5F80933F
:100A4000CE0184E090E09093D5018093D40180E0C2
:100A50003FDE0AC01092D5011092D40105C00000FB
:100A600003C0000001C000008091D4019091D50125
:100A7000CC01A0E0B0E040E050E028E030E0841B92
:100A8000950B2817390708F4AEC0815B9F4FFC0116
:100A900073C280E01DDEA7C01092CB011092CD0181
:100AA0001092CC011092CE019EC082E290E0FC0137
:100AB00010828091CB018930B0F48091CB01082F56
:100AC00010E065DB282FC80189529E4FFC0120836E
:100AD0008091CB018F5F8093CB018091CC018F5FA0
:100AE0008093CC0180C087E090E09093D501809303
:100AF000D40180E0EDDD77C09091CD018091CC01F3
:100B0000981708F06DC082E290E02091CD01222F6D
:100B100030E029523E4FF9012081220FFC01208351
:100B20008091CD01882F90E089529E4FFC018081F9
:100B3000CFDD56C08091C801882F90E0880F991FA3
:100B4000982F8091C701292F282B8091C901882FC8
:100B500090E0880F991F880F991F282B8091CA0158
:100B6000882F90E0880F991F880F991F880F991F71
:100B7000822B8093E00182E290E02091E001220F3D
:100B8000FC0120838091E001A3DD8091E0018823B6
:100B900049F18091CE01882F90E089529E4FFC014F
:100BA00090818091E001981739F485E090E090936E
:100BB000D5018093D40117C086E090E09093D501D1
:100BC0008093D40180E084DDFADA6AEA71E081E0A2
:100BD00074DB82E290E0FC01108205C0000003C0DB
:100BE000000001C000000000DF91CF911F910F9124
:100BF0000895CF93DF93CDB7DEB781E290E02FEF7A
:100C0000FC01208382E290E0FC01108284E290E00B
:100C100020EFFC01208385E290E02FE0FC0120839F
:100C200087E290E02FEFFC01208388E290E0FC0156
:100C300010828AE290E02FEFFC0120838BE290E0AB
:100C4000FC011082C6DA1EDD81E050DA68EC70E04B
:100C500080E090E050DCA0DB1092D5011092D4012E
:100C6000AEDA61E971E081E028DB60E070E0CB01A1
:100C700070DC61DDA1DD00008091C2018823E1F319
:100C80001092C201F6CF9CD008F481E008950CD0F8
:100C9000D2C0CAD040F0C1D030F021F45F3F19F08B
:100CA000B3C05111FCC0B6C0D7D098F39923C9F393
:100CB0005523B1F3951B550BBB27AA276217730762
:100CC000840738F09F5F5F4F220F331F441FAA1F16
:100CD000A9F333D00E2E3AF0E0E830D091505040D6
:100CE000E695001CCAF729D0FE2F27D0660F771F84
:100CF000881FBB1F261737074807AB07B0E809F066
:100D0000BB0B802DBF01FF2793585F4F2AF09E3FFA
:100D1000510568F079C0C3C05F3FECF3983EDCF347
:100D2000869577956795B795F7959F5FC9F7880F73
:100D3000911D9695879597F90895E1E0660F771FC5
:100D4000881FBB1F621773078407BA0720F0621B56
:100D5000730B840BBA0BEE1F88F7E095089504D04F
:100D60006894B1119CC008957FD088F09F5790F08F
:100D7000B92F9927B751A0F0D1F0660F771F881FC0
:100D8000991F1AF0BA95C9F712C0B13081F086D018
:100D9000B1E0089583C0672F782F8827B85F39F0B6
:100DA000B93FCCF3869577956795B395D9F73EF41F
:100DB00090958095709561957F4F8F4F9F4F0895C7
:100DC000990F0008550FAA0BE0E8FEEF161617065C
:100DD000E807F907C0F012161306E407F50798F0C4
:100DE000621B730B840B950B39F40A2661F0232BDD
:100DF000242B252B21F408950A2609F4A140A69559
:100E00008FEF811D811D089597F99F6780E870E03D
:100E100060E008959FEF80EC089500240A94161670
:100E2000170618060906089500240A9412161306D8
:100E3000140605060895092E0394000C11F4882366
:100E400052F0BB0F40F4BF2B11F460FF04C06F5F82
:100E50007F4F8F4F9F4F089557FD9058440F551F58
:100E600059F05F3F71F04795880F97FB991F61F02C
:100E70009F3F79F087950895121613061406551FA3
:100E8000F2CF4695F1DF08C0161617061806991F0F
:100E9000F1CF86957105610508940895E894BB2704
:100EA00066277727CB0197F908958ADF08F48FEF3B
:100EB00008950BD0C0CFB1DF28F0B6DF18F095232E
:100EC00009F0A2CFA7CF1124EACFC6DFA0F3959FE8
:100ED000D1F3950F50E0551F629FF001729FBB2721
:100EE000F00DB11D639FAA27F00DB11DAA1F649FCD
:100EF0006627B00DA11D661F829F2227B00DA11D80
:100F0000621F739FB00DA11D621F839FA00D611D05
:100F1000221F749F3327A00D611D231F849F600D26
:100F2000211D822F762F6A2F11249F5750408AF05F
:100F3000E1F088234AF0EE0FFF1FBB1F661F771FEB
:100F4000881F91505040A9F79E3F510570F05CCF2B
:100F5000A6CF5F3FECF3983EDCF3869577956795D7
:100F6000B795F795E7959F5FC1F7FE2B880F911D09
:100F70009695879597F90895EE0FFF1F0024001CA2
:0E0F80000BBE0790F691E02D0994F894FFCF78
:100F8E00010000004C657420676F206F662062754B
:100F9E0074746F6E20746F20737461727420676145
:100FAE006D652E0043616E20796F752072656D65DB
:100FBE006D62657220746869733F20533A20005940
:100FCE006F7572207475726E2C646F20796F752038
:100FDE0072656D656D6265723F20533A20004E69F1
:100FEE006365204A6F62212053636F72653A200059
:100FFE00436F6E67726174756C6174696F6E2120D8
:10100E00596F7527726520612077696E6E65722142
:10101E00005075736820627574746F6E20746F2043
:10102E002073746172742E2E2E0042657474657274
:10103E00206C75636B206E6578742074696D652104
:02104E000000A0
:00000001FF
